{
  "contractName": "Enable",
  "abi": [
    {
      "constant": true,
      "inputs": [],
      "name": "enabled",
      "outputs": [
        {
          "name": "",
          "type": "bool"
        }
      ],
      "payable": false,
      "stateMutability": "view",
      "type": "function"
    },
    {
      "constant": false,
      "inputs": [],
      "name": "claimOwnership",
      "outputs": [],
      "payable": false,
      "stateMutability": "nonpayable",
      "type": "function"
    },
    {
      "constant": true,
      "inputs": [],
      "name": "owner",
      "outputs": [
        {
          "name": "",
          "type": "address"
        }
      ],
      "payable": false,
      "stateMutability": "view",
      "type": "function"
    },
    {
      "constant": true,
      "inputs": [],
      "name": "reserveOwner",
      "outputs": [
        {
          "name": "",
          "type": "address"
        }
      ],
      "payable": false,
      "stateMutability": "view",
      "type": "function"
    },
    {
      "constant": false,
      "inputs": [
        {
          "name": "newOwner",
          "type": "address"
        }
      ],
      "name": "transferOwnership",
      "outputs": [],
      "payable": false,
      "stateMutability": "nonpayable",
      "type": "function"
    },
    {
      "anonymous": false,
      "inputs": [
        {
          "indexed": true,
          "name": "enabled",
          "type": "bool"
        }
      ],
      "name": "EnableStatusChanged",
      "type": "event"
    },
    {
      "anonymous": false,
      "inputs": [
        {
          "indexed": true,
          "name": "previousOwner",
          "type": "address"
        },
        {
          "indexed": true,
          "name": "newOwner",
          "type": "address"
        }
      ],
      "name": "OwnershipTransferred",
      "type": "event"
    },
    {
      "anonymous": false,
      "inputs": [
        {
          "indexed": true,
          "name": "owner",
          "type": "address"
        },
        {
          "indexed": true,
          "name": "reserveOwner",
          "type": "address"
        }
      ],
      "name": "ReserveOwnerSetted",
      "type": "event"
    },
    {
      "constant": false,
      "inputs": [],
      "name": "enableContract",
      "outputs": [],
      "payable": false,
      "stateMutability": "nonpayable",
      "type": "function"
    },
    {
      "constant": false,
      "inputs": [],
      "name": "disableContract",
      "outputs": [],
      "payable": false,
      "stateMutability": "nonpayable",
      "type": "function"
    }
  ],
  "bytecode": "0x608060405260018060146101000a81548160ff021916908315150217905550336000806101000a81548173ffffffffffffffffffffffffffffffffffffffff021916908373ffffffffffffffffffffffffffffffffffffffff16021790555061067b8061006d6000396000f300608060405260043610610083576000357c0100000000000000000000000000000000000000000000000000000000900463ffffffff168063238dafe014610088578063367edd32146100b75780634e71e0c8146100ce578063894ba833146100e55780638da5cb5b146100fc578063e61b655714610153578063f2fde38b146101aa575b600080fd5b34801561009457600080fd5b5061009d6101ed565b604051808215151515815260200191505060405180910390f35b3480156100c357600080fd5b506100cc610200565b005b3480156100da57600080fd5b506100e36102b5565b005b3480156100f157600080fd5b506100fa610412565b005b34801561010857600080fd5b506101116104c8565b604051808273ffffffffffffffffffffffffffffffffffffffff1673ffffffffffffffffffffffffffffffffffffffff16815260200191505060405180910390f35b34801561015f57600080fd5b506101686104ed565b604051808273ffffffffffffffffffffffffffffffffffffffff1673ffffffffffffffffffffffffffffffffffffffff16815260200191505060405180910390f35b3480156101b657600080fd5b506101eb600480360381019080803573ffffffffffffffffffffffffffffffffffffffff169060200190929190505050610513565b005b600160149054906101000a900460ff1681565b6000809054906101000a900473ffffffffffffffffffffffffffffffffffffffff1673ffffffffffffffffffffffffffffffffffffffff163373ffffffffffffffffffffffffffffffffffffffff1614151561025b57600080fd5b60018060146101000a81548160ff021916908315150217905550600160149054906101000a900460ff1615157f44cd398f157fa2dcc23e1a3238d8ec602ef8ed03c90372c10918d81d69e36ab160405160405180910390a2565b600160009054906101000a900473ffffffffffffffffffffffffffffffffffffffff1673ffffffffffffffffffffffffffffffffffffffff163373ffffffffffffffffffffffffffffffffffffffff1614151561031157600080fd5b600160009054906101000a900473ffffffffffffffffffffffffffffffffffffffff1673ffffffffffffffffffffffffffffffffffffffff166000809054906101000a900473ffffffffffffffffffffffffffffffffffffffff1673ffffffffffffffffffffffffffffffffffffffff167f8be0079c531659141344cd1fd0a4f28419497f9722a3daafe3b4186f6b6457e060405160405180910390a3600160009054906101000a900473ffffffffffffffffffffffffffffffffffffffff166000806101000a81548173ffffffffffffffffffffffffffffffffffffffff021916908373ffffffffffffffffffffffffffffffffffffffff160217905550565b6000809054906101000a900473ffffffffffffffffffffffffffffffffffffffff1673ffffffffffffffffffffffffffffffffffffffff163373ffffffffffffffffffffffffffffffffffffffff1614151561046d57600080fd5b6000600160146101000a81548160ff021916908315150217905550600160149054906101000a900460ff1615157f44cd398f157fa2dcc23e1a3238d8ec602ef8ed03c90372c10918d81d69e36ab160405160405180910390a2565b6000809054906101000a900473ffffffffffffffffffffffffffffffffffffffff1681565b600160009054906101000a900473ffffffffffffffffffffffffffffffffffffffff1681565b6000809054906101000a900473ffffffffffffffffffffffffffffffffffffffff1673ffffffffffffffffffffffffffffffffffffffff163373ffffffffffffffffffffffffffffffffffffffff1614151561056e57600080fd5b80600160006101000a81548173ffffffffffffffffffffffffffffffffffffffff021916908373ffffffffffffffffffffffffffffffffffffffff160217905550600160009054906101000a900473ffffffffffffffffffffffffffffffffffffffff1673ffffffffffffffffffffffffffffffffffffffff166000809054906101000a900473ffffffffffffffffffffffffffffffffffffffff1673ffffffffffffffffffffffffffffffffffffffff167f3d038ddd17655cfcc74a6096431ff52d1ec4e0636184382117262b0b390c45b460405160405180910390a3505600a165627a7a72305820a1a585af03a32492c3cae1cc7e1f3597af211b33b010fd19b6ef3fcf38d58ad20029",
  "source": "// SPDX-License-Identifier: MIT\n/**\n * @title Enable\n * @dev admin can disable funtions\n */\npragma solidity >=0.4.22 <0.9.0;\nimport \"./Ownable.sol\";\n\ncontract Enable is Ownable {\n    bool public enabled = true; // can functions be called\n\n    event EnableStatusChanged(bool indexed enabled);\n\n    /**\n     * @dev Throws if enanled is false\n     */\n    modifier onlyEnabled() {\n        require(enabled);\n        _;\n    }\n\n    /**\n     * @dev set contract enable\n     */\n    function enableContract() public onlyOwner {\n        enabled = true;\n        emit EnableStatusChanged(enabled);\n    }\n\n    /**\n     * @dev set contract disable\n     */\n    function disableContract() public onlyOwner {\n        enabled = false;\n        emit EnableStatusChanged(enabled);\n    }\n}\n",
  "sourcePath": "/home/zhangk/Documents/github/cpchain-dapps-utils/contracts/lib/Enable.sol",
  "compiler": {
    "name": "solc",
    "version": "0.4.25+commit.59dbf8f1.Linux.g++"
  },
  "schemaVersion": "3.4.4",
  "updatedAt": "2022-02-23T09:04:59.479Z",
  "devdoc": {
    "methods": {
      "disableContract()": {
        "details": "set contract disable"
      },
      "enableContract()": {
        "details": "set contract enable"
      }
    }
  },
  "userdoc": {
    "methods": {
      "claimOwnership()": {
        "notice": "The reserve owner claim the ownership for contract. Need to send a transaction to make sure the new owner address is available"
      },
      "transferOwnership(address)": {
        "notice": "Allows the current owner to set the reserve owner for contract. If the reserve owner performs a claim operation, ownership transfer completed."
      }
    }
  }
}